{"abi":[{"type":"constructor","inputs":[{"name":"_tokenContract","type":"address","internalType":"address"}],"stateMutability":"nonpayable"},{"type":"function","name":"forge","inputs":[{"name":"forgeToken","type":"uint8","internalType":"uint8"}],"outputs":[],"stateMutability":"nonpayable"},{"type":"function","name":"lastMint","inputs":[],"outputs":[{"name":"","type":"uint256","internalType":"uint256"}],"stateMutability":"view"},{"type":"function","name":"mintTokens","inputs":[{"name":"idx","type":"uint8","internalType":"uint8"}],"outputs":[],"stateMutability":"nonpayable"},{"type":"function","name":"tokenContract","inputs":[],"outputs":[{"name":"","type":"address","internalType":"contract VoidElementals"}],"stateMutability":"view"},{"type":"function","name":"trade","inputs":[{"name":"offerIdx","type":"uint8","internalType":"uint8"},{"name":"askIdx","type":"uint8","internalType":"uint8"}],"outputs":[],"stateMutability":"nonpayable"}],"bytecode":{"object":"0x608060405234801561001057600080fd5b5060405161106538038061106583398101604081905261002f91610054565b600080546001600160a01b0319166001600160a01b0392909216919091179055610084565b60006020828403121561006657600080fd5b81516001600160a01b038116811461007d57600080fd5b9392505050565b610fd2806100936000396000f3fe608060405234801561001057600080fd5b50600436106100575760003560e01c806355a373d61461005c578063586fc5b51461008c578063877a294a146100a3578063ae760339146100b8578063c5d40d3a146100cb575b600080fd5b60005461006f906001600160a01b031681565b6040516001600160a01b0390911681526020015b60405180910390f35b61009560015481565b604051908152602001610083565b6100b66100b1366004610ee6565b6100de565b005b6100b66100c6366004610f08565b610233565b6100b66100d9366004610ee6565b6103cf565b60028160ff1611156101435760405162461bcd60e51b8152602060048201526024808201527f596f752063616e206f6e6c79206d696e7420746f6b656e7320302c20312c206f6044820152633910191760e11b60648201526084015b60405180910390fd5b60015461015190603c610f3b565b4210156101bd5760405162461bcd60e51b815260206004820152603460248201527f436f6f6c646f776e206163746976653a20506c6561736520776169742031206d60448201527334b73aba32903132ba3bb2b2b71036b4b73a399760611b606482015260840161013a565b426001908155600054604051630ab714fb60e11b815233600482015260ff8416602482015260448101929092526001600160a01b03169063156e29f6906064015b600060405180830381600087803b15801561021857600080fd5b505af115801561022c573d6000803e3d6000fd5b5050505050565b60028160ff16111561029c5760405162461bcd60e51b815260206004820152602c60248201527f596f752063616e206f6e6c7920747261646520666f7220746f6b656e2049447360448201526b1018161018961037b910191760a11b606482015260840161013a565b8060ff168260ff16036102f15760405162461bcd60e51b815260206004820152601e60248201527f43616e6e6f7420747261646520746f6b656e20666f7220697473656c662e0000604482015260640161013a565b600054604051637a94c56560e11b815233600482015260ff84166024820152600160448201526001600160a01b039091169063f5298aca90606401600060405180830381600087803b15801561034657600080fd5b505af115801561035a573d6000803e3d6000fd5b5050600054604051630ab714fb60e11b815233600482015260ff85166024820152600160448201526001600160a01b03909116925063156e29f69150606401600060405180830381600087803b1580156103b357600080fd5b505af11580156103c7573d6000803e3d6000fd5b505050505050565b60038160ff16101580156103e7575060068160ff1611155b6104475760405162461bcd60e51b815260206004820152602b60248201527f4f6e6c7920746f6b656e2049447320332c20342c20352c206f722036206d617960448201526a103132903337b933b2b21760a91b606482015260840161013a565b8060ff166003036106ad5760008054604051627eeac760e11b815233600482015260248101929092526001916001600160a01b039091169062fdd58e90604401602060405180830381865afa1580156104a4573d6000803e3d6000fd5b505050506040513d601f19601f820116820180604052508101906104c89190610f62565b101580156105465750600054604051627eeac760e11b8152336004820152600160248201819052916001600160a01b03169062fdd58e90604401602060405180830381865afa15801561051f573d6000803e3d6000fd5b505050506040513d601f19601f820116820180604052508101906105439190610f62565b10155b6105aa5760405162461bcd60e51b815260206004820152602f60248201527f5261696a7575207265717569726573204b75726f6761776120616e6420456e6260448201526e3a903a37903132903337b933b2b21760891b606482015260840161013a565b60008054604051637a94c56560e11b81526001600160a01b039091169163f5298aca916105de913391600190600401610f7b565b600060405180830381600087803b1580156105f857600080fd5b505af115801561060c573d6000803e3d6000fd5b5050600054604051637a94c56560e11b81526001600160a01b03909116925063f5298aca91506106459033906001908190600401610f7b565b600060405180830381600087803b15801561065f57600080fd5b505af1158015610673573d6000803e3d6000fd5b5050600054604051630ab714fb60e11b81526001600160a01b03909116925063156e29f691506101fe903390600390600190600401610f7b565b8060ff1660040361090e57600054604051627eeac760e11b8152336004820152600160248201819052916001600160a01b03169062fdd58e90604401602060405180830381865afa158015610706573d6000803e3d6000fd5b505050506040513d601f19601f8201168201806040525081019061072a9190610f62565b101580156107a85750600054604051627eeac760e11b8152336004820152600260248201526001916001600160a01b03169062fdd58e90604401602060405180830381865afa158015610781573d6000803e3d6000fd5b505050506040513d601f19601f820116820180604052508101906107a59190610f62565b10155b61080a5760405162461bcd60e51b815260206004820152602d60248201527f53686967616e6520726571756972657320456e627520616e642052657473752060448201526c3a37903132903337b933b2b21760991b606482015260840161013a565b600054604051637a94c56560e11b81526001600160a01b039091169063f5298aca9061083f9033906001908190600401610f7b565b600060405180830381600087803b15801561085957600080fd5b505af115801561086d573d6000803e3d6000fd5b5050600054604051637a94c56560e11b81526001600160a01b03909116925063f5298aca91506108a7903390600290600190600401610f7b565b600060405180830381600087803b1580156108c157600080fd5b505af11580156108d5573d6000803e3d6000fd5b5050600054604051630ab714fb60e11b81526001600160a01b03909116925063156e29f691506101fe9033906004906001908201610f7b565b8060ff16600503610b755760008054604051627eeac760e11b815233600482015260248101929092526001916001600160a01b039091169062fdd58e90604401602060405180830381865afa15801561096b573d6000803e3d6000fd5b505050506040513d601f19601f8201168201806040525081019061098f9190610f62565b10158015610a0d5750600054604051627eeac760e11b8152336004820152600260248201526001916001600160a01b03169062fdd58e90604401602060405180830381865afa1580156109e6573d6000803e3d6000fd5b505050506040513d601f19601f82011682018060405250810190610a0a9190610f62565b10155b610a715760405162461bcd60e51b815260206004820152602f60248201527f446f726f6e207265717569726573204b75726f6761776120616e64205265747360448201526e3a903a37903132903337b933b2b21760891b606482015260840161013a565b60008054604051637a94c56560e11b81526001600160a01b039091169163f5298aca91610aa5913391600190600401610f7b565b600060405180830381600087803b158015610abf57600080fd5b505af1158015610ad3573d6000803e3d6000fd5b5050600054604051637a94c56560e11b81526001600160a01b03909116925063f5298aca9150610b0d903390600290600190600401610f7b565b600060405180830381600087803b158015610b2757600080fd5b505af1158015610b3b573d6000803e3d6000fd5b5050600054604051630ab714fb60e11b81526001600160a01b03909116925063156e29f691506101fe903390600590600190600401610f7b565b8060ff16600603610ecd5760008054604051627eeac760e11b815233600482015260248101929092526001916001600160a01b039091169062fdd58e90604401602060405180830381865afa158015610bd2573d6000803e3d6000fd5b505050506040513d601f19601f82011682018060405250810190610bf69190610f62565b10158015610c745750600054604051627eeac760e11b8152336004820152600160248201819052916001600160a01b03169062fdd58e90604401602060405180830381865afa158015610c4d573d6000803e3d6000fd5b505050506040513d601f19601f82011682018060405250810190610c719190610f62565b10155b8015610cf05750600054604051627eeac760e11b8152336004820152600260248201526001916001600160a01b03169062fdd58e90604401602060405180830381865afa158015610cc9573d6000803e3d6000fd5b505050506040513d601f19601f82011682018060405250810190610ced9190610f62565b10155b610d625760405162461bcd60e51b815260206004820152603760248201527f4675756a696e207265717569726573204b75726f676177612c20456e62752c2060448201527f616e6420526574737520746f20626520666f726765642e000000000000000000606482015260840161013a565b60008054604051637a94c56560e11b81526001600160a01b039091169163f5298aca91610d96913391600190600401610f7b565b600060405180830381600087803b158015610db057600080fd5b505af1158015610dc4573d6000803e3d6000fd5b5050600054604051637a94c56560e11b81526001600160a01b03909116925063f5298aca9150610dfd9033906001908190600401610f7b565b600060405180830381600087803b158015610e1757600080fd5b505af1158015610e2b573d6000803e3d6000fd5b5050600054604051637a94c56560e11b81526001600160a01b03909116925063f5298aca9150610e65903390600290600190600401610f7b565b600060405180830381600087803b158015610e7f57600080fd5b505af1158015610e93573d6000803e3d6000fd5b5050600054604051630ab714fb60e11b81526001600160a01b03909116925063156e29f691506101fe903390600690600190600401610f7b565b50565b803560ff81168114610ee157600080fd5b919050565b600060208284031215610ef857600080fd5b610f0182610ed0565b9392505050565b60008060408385031215610f1b57600080fd5b610f2483610ed0565b9150610f3260208401610ed0565b90509250929050565b80820180821115610f5c57634e487b7160e01b600052601160045260246000fd5b92915050565b600060208284031215610f7457600080fd5b5051919050565b6001600160a01b03939093168352602083019190915260408201526060019056fea2646970667358221220ee378a3518826842f0de37a231f69d3f0820ca0a6a97c833378e3a00c9b82c7c64736f6c63430008180033","linkReferences":{}},"methodIdentifiers":{"forge(uint8)":"c5d40d3a","lastMint()":"586fc5b5","mintTokens(uint8)":"877a294a","tokenContract()":"55a373d6","trade(uint8,uint8)":"ae760339"},"id":40}