{"abi":[{"type":"constructor","inputs":[{"name":"initialOwner","type":"address","internalType":"address"}],"stateMutability":"nonpayable"},{"type":"function","name":"acceptOwnership","inputs":[],"outputs":[],"stateMutability":"nonpayable"},{"type":"function","name":"balanceOf","inputs":[{"name":"account","type":"address","internalType":"address"},{"name":"id","type":"uint256","internalType":"uint256"}],"outputs":[{"name":"","type":"uint256","internalType":"uint256"}],"stateMutability":"view"},{"type":"function","name":"balanceOfBatch","inputs":[{"name":"accounts","type":"address[]","internalType":"address[]"},{"name":"ids","type":"uint256[]","internalType":"uint256[]"}],"outputs":[{"name":"","type":"uint256[]","internalType":"uint256[]"}],"stateMutability":"view"},{"type":"function","name":"burn","inputs":[{"name":"account","type":"address","internalType":"address"},{"name":"id","type":"uint256","internalType":"uint256"},{"name":"amount","type":"uint256","internalType":"uint256"}],"outputs":[],"stateMutability":"nonpayable"},{"type":"function","name":"isApprovedForAll","inputs":[{"name":"account","type":"address","internalType":"address"},{"name":"operator","type":"address","internalType":"address"}],"outputs":[{"name":"","type":"bool","internalType":"bool"}],"stateMutability":"view"},{"type":"function","name":"mint","inputs":[{"name":"account","type":"address","internalType":"address"},{"name":"id","type":"uint256","internalType":"uint256"},{"name":"amount","type":"uint256","internalType":"uint256"}],"outputs":[],"stateMutability":"nonpayable"},{"type":"function","name":"minter","inputs":[],"outputs":[{"name":"","type":"address","internalType":"address"}],"stateMutability":"view"},{"type":"function","name":"name","inputs":[],"outputs":[{"name":"","type":"string","internalType":"string"}],"stateMutability":"view"},{"type":"function","name":"owner","inputs":[],"outputs":[{"name":"","type":"address","internalType":"address"}],"stateMutability":"view"},{"type":"function","name":"pendingOwner","inputs":[],"outputs":[{"name":"","type":"address","internalType":"address"}],"stateMutability":"view"},{"type":"function","name":"renounceOwnership","inputs":[],"outputs":[],"stateMutability":"nonpayable"},{"type":"function","name":"safeBatchTransferFrom","inputs":[{"name":"from","type":"address","internalType":"address"},{"name":"to","type":"address","internalType":"address"},{"name":"ids","type":"uint256[]","internalType":"uint256[]"},{"name":"values","type":"uint256[]","internalType":"uint256[]"},{"name":"data","type":"bytes","internalType":"bytes"}],"outputs":[],"stateMutability":"nonpayable"},{"type":"function","name":"safeTransferFrom","inputs":[{"name":"from","type":"address","internalType":"address"},{"name":"to","type":"address","internalType":"address"},{"name":"id","type":"uint256","internalType":"uint256"},{"name":"value","type":"uint256","internalType":"uint256"},{"name":"data","type":"bytes","internalType":"bytes"}],"outputs":[],"stateMutability":"nonpayable"},{"type":"function","name":"setApprovalForAll","inputs":[{"name":"operator","type":"address","internalType":"address"},{"name":"approved","type":"bool","internalType":"bool"}],"outputs":[],"stateMutability":"nonpayable"},{"type":"function","name":"setMinter","inputs":[{"name":"_minter","type":"address","internalType":"address"}],"outputs":[],"stateMutability":"nonpayable"},{"type":"function","name":"supportsInterface","inputs":[{"name":"interfaceId","type":"bytes4","internalType":"bytes4"}],"outputs":[{"name":"","type":"bool","internalType":"bool"}],"stateMutability":"view"},{"type":"function","name":"symbol","inputs":[],"outputs":[{"name":"","type":"string","internalType":"string"}],"stateMutability":"view"},{"type":"function","name":"transferOwnership","inputs":[{"name":"newOwner","type":"address","internalType":"address"}],"outputs":[],"stateMutability":"nonpayable"},{"type":"function","name":"uri","inputs":[{"name":"id","type":"uint256","internalType":"uint256"}],"outputs":[{"name":"","type":"string","internalType":"string"}],"stateMutability":"pure"},{"type":"event","name":"ApprovalForAll","inputs":[{"name":"account","type":"address","indexed":true,"internalType":"address"},{"name":"operator","type":"address","indexed":true,"internalType":"address"},{"name":"approved","type":"bool","indexed":false,"internalType":"bool"}],"anonymous":false},{"type":"event","name":"OwnershipTransferStarted","inputs":[{"name":"previousOwner","type":"address","indexed":true,"internalType":"address"},{"name":"newOwner","type":"address","indexed":true,"internalType":"address"}],"anonymous":false},{"type":"event","name":"OwnershipTransferred","inputs":[{"name":"previousOwner","type":"address","indexed":true,"internalType":"address"},{"name":"newOwner","type":"address","indexed":true,"internalType":"address"}],"anonymous":false},{"type":"event","name":"TransferBatch","inputs":[{"name":"operator","type":"address","indexed":true,"internalType":"address"},{"name":"from","type":"address","indexed":true,"internalType":"address"},{"name":"to","type":"address","indexed":true,"internalType":"address"},{"name":"ids","type":"uint256[]","indexed":false,"internalType":"uint256[]"},{"name":"values","type":"uint256[]","indexed":false,"internalType":"uint256[]"}],"anonymous":false},{"type":"event","name":"TransferSingle","inputs":[{"name":"operator","type":"address","indexed":true,"internalType":"address"},{"name":"from","type":"address","indexed":true,"internalType":"address"},{"name":"to","type":"address","indexed":true,"internalType":"address"},{"name":"id","type":"uint256","indexed":false,"internalType":"uint256"},{"name":"value","type":"uint256","indexed":false,"internalType":"uint256"}],"anonymous":false},{"type":"event","name":"URI","inputs":[{"name":"value","type":"string","indexed":false,"internalType":"string"},{"name":"id","type":"uint256","indexed":true,"internalType":"uint256"}],"anonymous":false},{"type":"error","name":"ERC1155InsufficientBalance","inputs":[{"name":"sender","type":"address","internalType":"address"},{"name":"balance","type":"uint256","internalType":"uint256"},{"name":"needed","type":"uint256","internalType":"uint256"},{"name":"tokenId","type":"uint256","internalType":"uint256"}]},{"type":"error","name":"ERC1155InvalidApprover","inputs":[{"name":"approver","type":"address","internalType":"address"}]},{"type":"error","name":"ERC1155InvalidArrayLength","inputs":[{"name":"idsLength","type":"uint256","internalType":"uint256"},{"name":"valuesLength","type":"uint256","internalType":"uint256"}]},{"type":"error","name":"ERC1155InvalidOperator","inputs":[{"name":"operator","type":"address","internalType":"address"}]},{"type":"error","name":"ERC1155InvalidReceiver","inputs":[{"name":"receiver","type":"address","internalType":"address"}]},{"type":"error","name":"ERC1155InvalidSender","inputs":[{"name":"sender","type":"address","internalType":"address"}]},{"type":"error","name":"ERC1155MissingApprovalForAll","inputs":[{"name":"operator","type":"address","internalType":"address"},{"name":"owner","type":"address","internalType":"address"}]},{"type":"error","name":"OwnableInvalidOwner","inputs":[{"name":"owner","type":"address","internalType":"address"}]},{"type":"error","name":"OwnableUnauthorizedAccount","inputs":[{"name":"account","type":"address","internalType":"address"}]}],"bytecode":{"object":"0x60c0604052600f60809081526e566f696420456c656d656e74616c7360881b60a0526005906200003090826200021e565b506040805180820190915260048152631593d25160e21b60208201526006906200005b90826200021e565b503480156200006957600080fd5b5060405162001ac938038062001ac98339810160408190526200008c91620002ea565b806040518060600160405280603a815260200162001a8f603a9139620000b281620000f5565b506001600160a01b038116620000e257604051631e4fbdf760e01b81526000600482015260240160405180910390fd5b620000ed8162000107565b50506200031c565b60026200010382826200021e565b5050565b600480546001600160a01b0319169055620001228162000125565b50565b600380546001600160a01b038381166001600160a01b0319831681179093556040519116919082907f8be0079c531659141344cd1fd0a4f28419497f9722a3daafe3b4186f6b6457e090600090a35050565b634e487b7160e01b600052604160045260246000fd5b600181811c90821680620001a257607f821691505b602082108103620001c357634e487b7160e01b600052602260045260246000fd5b50919050565b601f82111562000219576000816000526020600020601f850160051c81016020861015620001f45750805b601f850160051c820191505b81811015620002155782815560010162000200565b5050505b505050565b81516001600160401b038111156200023a576200023a62000177565b62000252816200024b84546200018d565b84620001c9565b602080601f8311600181146200028a5760008415620002715750858301515b600019600386901b1c1916600185901b17855562000215565b600085815260208120601f198616915b82811015620002bb578886015182559484019460019091019084016200029a565b5085821015620002da5787850151600019600388901b60f8161c191681555b5050505050600190811b01905550565b600060208284031215620002fd57600080fd5b81516001600160a01b03811681146200031557600080fd5b9392505050565b611763806200032c6000396000f3fe608060405234801561001057600080fd5b50600436106101205760003560e01c806379ba5097116100ad578063e985e9c511610071578063e985e9c514610256578063f242432a14610269578063f2fde38b1461027c578063f5298aca1461028f578063fca3b5aa146102a257600080fd5b806379ba5097146102115780638da5cb5b1461021957806395d89b411461022a578063a22cb46514610232578063e30c39781461024557600080fd5b80630e89341c116100f45780630e89341c146101ae578063156e29f6146101c15780632eb2c2d6146101d65780634e1273f4146101e9578063715018a61461020957600080fd5b8062fdd58e1461012557806301ffc9a71461014b57806306fdde031461016e5780630754617214610183575b600080fd5b610138610133366004611065565b6102b5565b6040519081526020015b60405180910390f35b61015e6101593660046110a5565b6102dd565b6040519015158152602001610142565b61017661032d565b6040516101429190611119565b600754610196906001600160a01b031681565b6040516001600160a01b039091168152602001610142565b6101766101bc36600461112c565b6103bb565b6101d46101cf366004611145565b6103ec565b005b6101d46101e43660046112c2565b61045c565b6101fc6101f736600461136c565b6104c3565b6040516101429190611468565b6101d4610590565b6101d46105a4565b6003546001600160a01b0316610196565b6101766105e8565b6101d461024036600461147b565b6105f5565b6004546001600160a01b0316610196565b61015e6102643660046114b7565b610604565b6101d46102773660046114ea565b610632565b6101d461028a36600461154f565b610691565b6101d461029d366004611145565b610702565b6101d46102b036600461154f565b610758565b6000818152602081815260408083206001600160a01b03861684529091529020545b92915050565b60006001600160e01b03198216636cdb3d1360e11b148061030e57506001600160e01b031982166303a24d0760e21b145b806102d757506301ffc9a760e01b6001600160e01b03198316146102d7565b6005805461033a9061156a565b80601f01602080910402602001604051908101604052809291908181526020018280546103669061156a565b80156103b35780601f10610388576101008083540402835291602001916103b3565b820191906000526020600020905b81548152906001019060200180831161039657829003601f168201915b505050505081565b60606103c682610782565b6040516020016103d691906115a4565b6040516020818303038152906040529050919050565b6007546001600160a01b0316331461043c5760405162461bcd60e51b815260206004820152600e60248201526d139bdd08185d5d1a1bdc9a5e995960921b60448201526064015b60405180910390fd5b61045783838360405180602001604052806000815250610815565b505050565b336001600160a01b038616811480159061047d575061047b8682610604565b155b156104ae5760405163711bec9160e11b81526001600160a01b03808316600483015287166024820152604401610433565b6104bb8686868686610872565b505050505050565b606081518351146104f45781518351604051635b05999160e01b815260048101929092526024820152604401610433565b6000835167ffffffffffffffff81111561051057610510611178565b604051908082528060200260200182016040528015610539578160200160208202803683370190505b50905060005b845181101561058857602080820286010151610563906020808402870101516102b5565b82828151811061057557610575611608565b602090810291909101015260010161053f565b509392505050565b6105986108d9565b6105a26000610906565b565b60045433906001600160a01b031681146105dc5760405163118cdaa760e01b81526001600160a01b0382166004820152602401610433565b6105e581610906565b50565b6006805461033a9061156a565b61060033838361091f565b5050565b6001600160a01b03918216600090815260016020908152604080832093909416825291909152205460ff1690565b336001600160a01b038616811480159061065357506106518682610604565b155b156106845760405163711bec9160e11b81526001600160a01b03808316600483015287166024820152604401610433565b6104bb86868686866109b5565b6106996108d9565b600480546001600160a01b0383166001600160a01b031990911681179091556106ca6003546001600160a01b031690565b6001600160a01b03167f38d16b8cac22d99fc7c124b9cd0de2d3fa1faef420bfe791d8c362d765e2270060405160405180910390a350565b6007546001600160a01b0316331461074d5760405162461bcd60e51b815260206004820152600e60248201526d139bdd08185d5d1a1bdc9a5e995960921b6044820152606401610433565b610457838383610a43565b6107606108d9565b600780546001600160a01b0319166001600160a01b0392909216919091179055565b6060600061078f83610aab565b600101905060008167ffffffffffffffff8111156107af576107af611178565b6040519080825280601f01601f1916602001820160405280156107d9576020820181803683370190505b5090508181016020015b600019016f181899199a1a9b1b9c1cb0b131b232b360811b600a86061a8153600a85049450846107e357509392505050565b6001600160a01b03841661083f57604051632bfa23e760e11b815260006004820152602401610433565b604080516001808252602082018690528183019081526060820185905260808201909252906104bb600087848487610b83565b6001600160a01b03841661089c57604051632bfa23e760e11b815260006004820152602401610433565b6001600160a01b0385166108c557604051626a0d4560e21b815260006004820152602401610433565b6108d28585858585610b83565b5050505050565b6003546001600160a01b031633146105a25760405163118cdaa760e01b8152336004820152602401610433565b600480546001600160a01b03191690556105e581610bd6565b6001600160a01b0382166109485760405162ced3e160e81b815260006004820152602401610433565b6001600160a01b03838116600081815260016020908152604080832094871680845294825291829020805460ff191686151590811790915591519182527f17307eab39ab6107e8899845ad3d59bd9653f200f220920489ca2b5937696c31910160405180910390a3505050565b6001600160a01b0384166109df57604051632bfa23e760e11b815260006004820152602401610433565b6001600160a01b038516610a0857604051626a0d4560e21b815260006004820152602401610433565b60408051600180825260208201869052818301908152606082018590526080820190925290610a3a8787848487610b83565b50505050505050565b6001600160a01b038316610a6c57604051626a0d4560e21b815260006004820152602401610433565b604080516001808252602082018590528183019081526060820184905260a082019092526000608082018181529192916108d291879185908590610b83565b60008072184f03e93ff9f4daa797ed6e38ed64bf6a1f0160401b8310610aea5772184f03e93ff9f4daa797ed6e38ed64bf6a1f0160401b830492506040015b6d04ee2d6d415b85acef81000000008310610b16576d04ee2d6d415b85acef8100000000830492506020015b662386f26fc100008310610b3457662386f26fc10000830492506010015b6305f5e1008310610b4c576305f5e100830492506008015b6127108310610b6057612710830492506004015b60648310610b72576064830492506002015b600a83106102d75760010192915050565b610b8f85858585610c28565b6001600160a01b038416156108d25782513390600103610bc85760208481015190840151610bc1838989858589610e3c565b50506104bb565b6104bb818787878787610f60565b600380546001600160a01b038381166001600160a01b0319831681179093556040519116919082907f8be0079c531659141344cd1fd0a4f28419497f9722a3daafe3b4186f6b6457e090600090a35050565b8051825114610c575781518151604051635b05999160e01b815260048101929092526024820152604401610433565b3360005b8351811015610d5d576020818102858101820151908501909101516001600160a01b03881615610d0e576000828152602081815260408083206001600160a01b038c16845290915290205481811015610ce7576040516303dee4c560e01b81526001600160a01b038a166004820152602481018290526044810183905260648101849052608401610433565b6000838152602081815260408083206001600160a01b038d16845290915290209082900390555b6001600160a01b03871615610d53576000828152602081815260408083206001600160a01b038b16845290915281208054839290610d4d90849061161e565b90915550505b5050600101610c5b565b508251600103610dde5760208301516000906020840151909150856001600160a01b0316876001600160a01b0316846001600160a01b03167fc3d58168c5ae7397731d063d5bbf3d657854427343f4c083240f7aacaa2d0f628585604051610dcf929190918252602082015260400190565b60405180910390a450506108d2565b836001600160a01b0316856001600160a01b0316826001600160a01b03167f4a39dc06d4c0dbc64b70af90fd698a233a518aa5d07e595d983b8c0526c8f7fb8686604051610e2d92919061163f565b60405180910390a45050505050565b6001600160a01b0384163b156104bb5760405163f23a6e6160e01b81526001600160a01b0385169063f23a6e6190610e80908990899088908890889060040161166d565b6020604051808303816000875af1925050508015610ebb575060408051601f3d908101601f19168201909252610eb8918101906116b2565b60015b610f24573d808015610ee9576040519150601f19603f3d011682016040523d82523d6000602084013e610eee565b606091505b508051600003610f1c57604051632bfa23e760e11b81526001600160a01b0386166004820152602401610433565b805181602001fd5b6001600160e01b0319811663f23a6e6160e01b14610a3a57604051632bfa23e760e11b81526001600160a01b0386166004820152602401610433565b6001600160a01b0384163b156104bb5760405163bc197c8160e01b81526001600160a01b0385169063bc197c8190610fa490899089908890889088906004016116cf565b6020604051808303816000875af1925050508015610fdf575060408051601f3d908101601f19168201909252610fdc918101906116b2565b60015b61100d573d808015610ee9576040519150601f19603f3d011682016040523d82523d6000602084013e610eee565b6001600160e01b0319811663bc197c8160e01b14610a3a57604051632bfa23e760e11b81526001600160a01b0386166004820152602401610433565b80356001600160a01b038116811461106057600080fd5b919050565b6000806040838503121561107857600080fd5b61108183611049565b946020939093013593505050565b6001600160e01b0319811681146105e557600080fd5b6000602082840312156110b757600080fd5b81356110c28161108f565b9392505050565b60005b838110156110e45781810151838201526020016110cc565b50506000910152565b600081518084526111058160208601602086016110c9565b601f01601f19169290920160200192915050565b6020815260006110c260208301846110ed565b60006020828403121561113e57600080fd5b5035919050565b60008060006060848603121561115a57600080fd5b61116384611049565b95602085013595506040909401359392505050565b634e487b7160e01b600052604160045260246000fd5b604051601f8201601f1916810167ffffffffffffffff811182821017156111b7576111b7611178565b604052919050565b600067ffffffffffffffff8211156111d9576111d9611178565b5060051b60200190565b600082601f8301126111f457600080fd5b81356020611209611204836111bf565b61118e565b8083825260208201915060208460051b87010193508684111561122b57600080fd5b602086015b848110156112475780358352918301918301611230565b509695505050505050565b600082601f83011261126357600080fd5b813567ffffffffffffffff81111561127d5761127d611178565b611290601f8201601f191660200161118e565b8181528460208386010111156112a557600080fd5b816020850160208301376000918101602001919091529392505050565b600080600080600060a086880312156112da57600080fd5b6112e386611049565b94506112f160208701611049565b9350604086013567ffffffffffffffff8082111561130e57600080fd5b61131a89838a016111e3565b9450606088013591508082111561133057600080fd5b61133c89838a016111e3565b9350608088013591508082111561135257600080fd5b5061135f88828901611252565b9150509295509295909350565b6000806040838503121561137f57600080fd5b823567ffffffffffffffff8082111561139757600080fd5b818501915085601f8301126113ab57600080fd5b813560206113bb611204836111bf565b82815260059290921b840181019181810190898411156113da57600080fd5b948201945b838610156113ff576113f086611049565b825294820194908201906113df565b9650508601359250508082111561141557600080fd5b50611422858286016111e3565b9150509250929050565b60008151808452602080850194506020840160005b8381101561145d57815187529582019590820190600101611441565b509495945050505050565b6020815260006110c2602083018461142c565b6000806040838503121561148e57600080fd5b61149783611049565b9150602083013580151581146114ac57600080fd5b809150509250929050565b600080604083850312156114ca57600080fd5b6114d383611049565b91506114e160208401611049565b90509250929050565b600080600080600060a0868803121561150257600080fd5b61150b86611049565b945061151960208701611049565b93506040860135925060608601359150608086013567ffffffffffffffff81111561154357600080fd5b61135f88828901611252565b60006020828403121561156157600080fd5b6110c282611049565b600181811c9082168061157e57607f821691505b60208210810361159e57634e487b7160e01b600052602260045260246000fd5b50919050565b7f697066733a2f2f516d506d7267596a5550747a377767464768666641706b75478152754e6b4c38666f7373684b59584237796a54636272742f60501b6020820152600082516115fb8160368501602087016110c9565b9190910160360192915050565b634e487b7160e01b600052603260045260246000fd5b808201808211156102d757634e487b7160e01b600052601160045260246000fd5b604081526000611652604083018561142c565b8281036020840152611664818561142c565b95945050505050565b6001600160a01b03868116825285166020820152604081018490526060810183905260a0608082018190526000906116a7908301846110ed565b979650505050505050565b6000602082840312156116c457600080fd5b81516110c28161108f565b6001600160a01b0386811682528516602082015260a0604082018190526000906116fb9083018661142c565b828103606084015261170d818661142c565b9050828103608084015261172181856110ed565b9897505050505050505056fea264697066735822122054753ae6ffd548d9dc23a5d27cd9f7c5ae77963543250b3a2fe8315a1b17fae964736f6c63430008180033697066733a2f2f516d506d7267596a5550747a377767464768666641706b75474e6b4c38666f7373684b59584237796a54636272742f7b69647d","linkReferences":{}},"methodIdentifiers":{"acceptOwnership()":"79ba5097","balanceOf(address,uint256)":"00fdd58e","balanceOfBatch(address[],uint256[])":"4e1273f4","burn(address,uint256,uint256)":"f5298aca","isApprovedForAll(address,address)":"e985e9c5","mint(address,uint256,uint256)":"156e29f6","minter()":"07546172","name()":"06fdde03","owner()":"8da5cb5b","pendingOwner()":"e30c3978","renounceOwnership()":"715018a6","safeBatchTransferFrom(address,address,uint256[],uint256[],bytes)":"2eb2c2d6","safeTransferFrom(address,address,uint256,uint256,bytes)":"f242432a","setApprovalForAll(address,bool)":"a22cb465","setMinter(address)":"fca3b5aa","supportsInterface(bytes4)":"01ffc9a7","symbol()":"95d89b41","transferOwnership(address)":"f2fde38b","uri(uint256)":"0e89341c"},"id":40}